{
    "contractName": "VotingSystem",
    "abi": [
        {
            "constant": true,
            "inputs": [
                {
                    "name": "",
                    "type": "uint256"
                }
            ],
            "name": "candidates",
            "outputs": [
                {
                    "name": "",
                    "type": "string"
                }
            ],
            "payable": false,
            "stateMutability": "view",
            "type": "function"
        },
        {
            "anonymous": false,
            "inputs": [
                {
                    "indexed": false,
                    "name": "index",
                    "type": "uint256"
                },
                {
                    "indexed": false,
                    "name": "name",
                    "type": "string"
                }
            ],
            "name": "CandidateAdded",
            "type": "event"
        },
        {
            "anonymous": false,
            "inputs": [
                {
                    "indexed": false,
                    "name": "index",
                    "type": "uint256"
                },
                {
                    "indexed": false,
                    "name": "name",
                    "type": "string"
                }
            ],
            "name": "CandidateRemoved",
            "type": "event"
        },
        {
            "constant": false,
            "inputs": [
                {
                    "name": "name",
                    "type": "string"
                }
            ],
            "name": "addCandidate",
            "outputs": [],
            "payable": false,
            "stateMutability": "nonpayable",
            "type": "function"
        },
        {
            "constant": false,
            "inputs": [
                {
                    "name": "name",
                    "type": "string"
                }
            ],
            "name": "removeCandidate",
            "outputs": [],
            "payable": false,
            "stateMutability": "nonpayable",
            "type": "function"
        },
        {
            "constant": true,
            "inputs": [],
            "name": "getAllCandidates",
            "outputs": [
                {
                    "name": "",
                    "type": "string[]"
                }
            ],
            "payable": false,
            "stateMutability": "view",
            "type": "function"
        }
    ],
    "bytecode": "0x6080604052600060025534801561001557600080fd5b50610bea806100256000396000f3fe60806040526004361061005c576000357c01000000000000000000000000000000000000000000000000000000009004806301c9605b146100615780632e6997fe1461008a5780633477ee2e146100b5578063462e91ec146100f2575b600080fd5b34801561006d57600080fd5b5061008860048036036100839190810190610840565b61011b565b005b34801561009657600080fd5b5061009f6102e5565b6040516100ac9190610a01565b60405180910390f35b3480156100c157600080fd5b506100dc60048036036100d79190810190610881565b61040c565b6040516100e99190610a23565b60405180910390f35b3480156100fe57600080fd5b5061011960048036036101149190810190610840565b6104bc565b005b60008151111515610161576040517f08c379a000000000000000000000000000000000000000000000000000000000815260040161015890610a65565b60405180910390fd5b61016a816105ed565b15156101ab576040517f08c379a00000000000000000000000000000000000000000000000000000000081526004016101a290610a45565b60405180910390fd5b60006001826040518082805190602001908083835b6020831015156101e557805182526020820191506020810190506020830392506101c0565b6001836020036101000a03801982511681845116808217855250505050505090500191505090815260200160405180910390205490507f8d662652a78c2e9ce96f9181f1cd23e1feb20980c5c52059a37c3c12160d7422818360405161024c929190610a85565b60405180910390a1600080828152602001908152602001600020600061027291906106e9565b6001826040518082805190602001908083835b6020831015156102aa5780518252602082019150602081019050602083039250610285565b6001836020036101000a0380198251168184511680821785525050505050509050019150509081526020016040518091039020600090555050565b60608060025460405190808252806020026020018201604052801561031e57816020015b60608152602001906001900390816103095790505b50905060008090505b600254811015610404576000808281526020019081526020016000208054600181600116156101000203166002900480601f0160208091040260200160405190810160405280929190818152602001828054600181600116156101000203166002900480156103d75780601f106103ac576101008083540402835291602001916103d7565b820191906000526020600020905b8154815290600101906020018083116103ba57829003601f168201915b505050505082828151811015156103ea57fe5b906020019060200201819052508080600101915050610327565b508091505090565b60006020528060005260406000206000915090508054600181600116156101000203166002900480601f0160208091040260200160405190810160405280929190818152602001828054600181600116156101000203166002900480156104b45780601f10610489576101008083540402835291602001916104b4565b820191906000526020600020905b81548152906001019060200180831161049757829003601f168201915b505050505081565b60008151111515610502576040517f08c379a00000000000000000000000000000000000000000000000000000000081526004016104f990610a65565b60405180910390fd5b806000806002548152602001908152602001600020908051906020019061052a929190610731565b506002546001826040518082805190602001908083835b6020831015156105665780518252602082019150602081019050602083039250610541565b6001836020036101000a0380198251168184511680821785525050505050509050019150509081526020016040518091039020819055507fe83b2a43e7e82d975c8a0a6d2f045153c869e111136a34d1889ab7b598e396a3600254826040516105d0929190610a85565b60405180910390a160026000815480929190600101919050555050565b6000806001836040518082805190602001908083835b6020831015156106285780518252602082019150602081019050602083039250610603565b6001836020036101000a0380198251168184511680821785525050505050509050019150509081526020016040518091039020549050828051906020012060008083815260200190815260200160002060405180828054600181600116156101000203166002900480156106d35780601f106106b15761010080835404028352918201916106d3565b820191906000526020600020905b8154815290600101906020018083116106bf575b5050915050604051809103902014915050919050565b50805460018160011615610100020316600290046000825580601f1061070f575061072e565b601f01602090049060005260206000209081019061072d91906107b1565b5b50565b828054600181600116156101000203166002900490600052602060002090601f016020900481019282601f1061077257805160ff19168380011785556107a0565b828001600101855582156107a0579182015b8281111561079f578251825591602001919060010190610784565b5b5090506107ad91906107b1565b5090565b6107d391905b808211156107cf5760008160009055506001016107b7565b5090565b90565b600082601f83011215156107e957600080fd5b81356107fc6107f782610ae2565b610ab5565b9150808252602083016020830185838301111561081857600080fd5b610823838284610b5d565b50505092915050565b60006108388235610b53565b905092915050565b60006020828403121561085257600080fd5b600082013567ffffffffffffffff81111561086c57600080fd5b610878848285016107d6565b91505092915050565b60006020828403121561089357600080fd5b60006108a18482850161082c565b91505092915050565b60006108b582610b1b565b808452602084019350836020820285016108ce85610b0e565b60005b848110156109075783830388526108e983835161094e565b92506108f482610b3c565b91506020880197506001810190506108d1565b508196508694505050505092915050565b600061092382610b31565b808452610937816020860160208601610b6c565b61094081610b9f565b602085010191505092915050565b600061095982610b26565b80845261096d816020860160208601610b6c565b61097681610b9f565b602085010191505092915050565b6000601882527f43616e64696461746520646f6573206e6f7420657869737400000000000000006020830152604082019050919050565b6000601e82527f43616e646964617465206e616d652063616e6e6f7420626520656d70747900006020830152604082019050919050565b6109fb81610b49565b82525050565b60006020820190508181036000830152610a1b81846108aa565b905092915050565b60006020820190508181036000830152610a3d818461094e565b905092915050565b60006020820190508181036000830152610a5e81610984565b9050919050565b60006020820190508181036000830152610a7e816109bb565b9050919050565b6000604082019050610a9a60008301856109f2565b8181036020830152610aac8184610918565b90509392505050565b6000604051905081810181811067ffffffffffffffff82111715610ad857600080fd5b8060405250919050565b600067ffffffffffffffff821115610af957600080fd5b601f19601f8301169050602081019050919050565b6000602082019050919050565b600081519050919050565b600081519050919050565b600081519050919050565b6000602082019050919050565b6000819050919050565b6000819050919050565b82818337600083830152505050565b60005b83811015610b8a578082015181840152602081019050610b6f565b83811115610b99576000848401525b50505050565b6000601f19601f830116905091905056fea265627a7a72305820ef191ea73a9b7a5a1d1a93a709f6a719a95d21085d8fdd1f24f0e7fddd6820926c6578706572696d656e74616cf50037",
    "source": "// SPDX-License-Identifier: MIT\r\npragma solidity >=0.4.22 <0.9.0;\r\npragma experimental ABIEncoderV2;\r\n\r\ncontract VotingSystem {\r\n    mapping(uint256 => string) public candidates;\r\n    mapping(string => uint256) private candidateIndices;\r\n    uint256 top = 0;\r\n\r\n    event CandidateAdded(uint256 index, string name);\r\n    event CandidateRemoved(uint256 index, string name);\r\n\r\n    function addCandidate(string memory name) public {\r\n        require(bytes(name).length > 0, \"Candidate name cannot be empty\");\r\n        candidates[top] = name;\r\n        candidateIndices[name] = top;\r\n        emit CandidateAdded(top, name);\r\n        top++;\r\n    }\r\n    \r\n    function removeCandidate(string memory name) public {\r\n        require(bytes(name).length > 0, \"Candidate name cannot be empty\");\r\n        require(candidateExists(name), \"Candidate does not exist\");\r\n\r\n        uint256 index = candidateIndices[name];\r\n        emit CandidateRemoved(index, name);\r\n        \r\n        delete candidates[index];\r\n        delete candidateIndices[name];\r\n    }\r\n\r\n    function candidateExists(string memory name) internal view returns (bool) {\r\n        uint256 index = candidateIndices[name];\r\n        return (keccak256(bytes(candidates[index])) == keccak256(bytes(name)));\r\n    }\r\n\r\n    function getAllCandidates() public view returns (string[] memory) {\r\n        string[] memory names = new string[](top);\r\n        for (uint256 i = 0; i < top; i++) {\r\n            names[i] = candidates[i];\r\n        }\r\n        return names;\r\n    }\r\n}",
    "sourcePath": "C:\\Users\\mtala\\Desktop\\Voting System\\contracts\\VotingSystem.sol",
    "compiler": {
        "name": "solc",
        "version": "0.5.1+commit.c8a2cb62.Emscripten.clang"
    },
    "schemaVersion": "3.4.16",
    "updatedAt": "2024-06-11T10:31:22.208Z",
    "devdoc": {
        "methods": {}
    },
    "userdoc": {
        "methods": {}
    }
}