{
  "contractName": "VotingSystem",
  "abi": [
    {
      "constant": true,
      "inputs": [
        {
          "name": "",
          "type": "uint256"
        }
      ],
      "name": "candidates",
      "outputs": [
        {
          "name": "",
          "type": "string"
        }
      ],
      "payable": false,
      "stateMutability": "view",
      "type": "function"
    },
    {
      "anonymous": false,
      "inputs": [
        {
          "indexed": false,
          "name": "index",
          "type": "uint256"
        },
        {
          "indexed": false,
          "name": "name",
          "type": "string"
        }
      ],
      "name": "CandidateAdded",
      "type": "event"
    },
    {
      "anonymous": false,
      "inputs": [
        {
          "indexed": false,
          "name": "index",
          "type": "uint256"
        },
        {
          "indexed": false,
          "name": "name",
          "type": "string"
        }
      ],
      "name": "CandidateRemoved",
      "type": "event"
    },
    {
      "constant": false,
      "inputs": [
        {
          "name": "name",
          "type": "string"
        }
      ],
      "name": "addCandidate",
      "outputs": [],
      "payable": false,
      "stateMutability": "nonpayable",
      "type": "function"
    },
    {
      "constant": false,
      "inputs": [
        {
          "name": "name",
          "type": "string"
        }
      ],
      "name": "removeCandidate",
      "outputs": [],
      "payable": false,
      "stateMutability": "nonpayable",
      "type": "function"
    },
    {
      "constant": true,
      "inputs": [],
      "name": "getAllCandidates",
      "outputs": [
        {
          "name": "",
          "type": "string[]"
        }
      ],
      "payable": false,
      "stateMutability": "view",
      "type": "function"
    }
  ],
  "bytecode": "0x6080604052600060025534801561001557600080fd5b50610d60806100256000396000f3fe60806040526004361061005c576000357c01000000000000000000000000000000000000000000000000000000009004806301c9605b146100615780632e6997fe1461008a5780633477ee2e146100b5578063462e91ec146100f2575b600080fd5b34801561006d57600080fd5b506100886004803603610083919081019061095f565b61011b565b005b34801561009657600080fd5b5061009f6102e5565b6040516100ac9190610b57565b60405180910390f35b3480156100c157600080fd5b506100dc60048036036100d791908101906109a0565b6104d3565b6040516100e99190610b79565b60405180910390f35b3480156100fe57600080fd5b506101196004803603610114919081019061095f565b610583565b005b60008151111515610161576040517f08c379a000000000000000000000000000000000000000000000000000000000815260040161015890610bdb565b60405180910390fd5b61016a816106ff565b15156101ab576040517f08c379a00000000000000000000000000000000000000000000000000000000081526004016101a290610bbb565b60405180910390fd5b60006001826040518082805190602001908083835b6020831015156101e557805182526020820191506020810190506020830392506101c0565b6001836020036101000a03801982511681845116808217855250505050505090500191505090815260200160405180910390205490507f8d662652a78c2e9ce96f9181f1cd23e1feb20980c5c52059a37c3c12160d7422818360405161024c929190610bfb565b60405180910390a160008082815260200190815260200160002060006102729190610808565b6001826040518082805190602001908083835b6020831015156102aa5780518252602082019150602081019050602083039250610285565b6001836020036101000a0380198251168184511680821785525050505050509050019150509081526020016040518091039020600090555050565b60608060025460405190808252806020026020018201604052801561031e57816020015b60608152602001906001900390816103095790505b509050600080905060008090505b6002548110156104415760008060008381526020019081526020016000208054600181600116156101000203166002900490501115610434576000808281526020019081526020016000208054600181600116156101000203166002900480601f01602080910402602001604051908101604052809291908181526020018280546001816001161561010002031660029004801561040b5780601f106103e05761010080835404028352916020019161040b565b820191906000526020600020905b8154815290600101906020018083116103ee57829003601f168201915b5050505050838381518110151561041e57fe5b9060200190602002018190525081806001019250505b808060010191505061032c565b5060608160405190808252806020026020018201604052801561047857816020015b60608152602001906001900390816104635790505b50905060008090505b828110156104c957838181518110151561049757fe5b9060200190602002015182828151811015156104af57fe5b906020019060200201819052508080600101915050610481565b5080935050505090565b60006020528060005260406000206000915090508054600181600116156101000203166002900480601f01602080910402602001604051908101604052809291908181526020018280546001816001161561010002031660029004801561057b5780601f106105505761010080835404028352916020019161057b565b820191906000526020600020905b81548152906001019060200180831161055e57829003601f168201915b505050505081565b600081511115156105c9576040517f08c379a00000000000000000000000000000000000000000000000000000000081526004016105c090610bdb565b60405180910390fd5b6105d2816106ff565b151515610614576040517f08c379a000000000000000000000000000000000000000000000000000000000815260040161060b90610b9b565b60405180910390fd5b806000806002548152602001908152602001600020908051906020019061063c929190610850565b506002546001826040518082805190602001908083835b6020831015156106785780518252602082019150602081019050602083039250610653565b6001836020036101000a0380198251168184511680821785525050505050509050019150509081526020016040518091039020819055507fe83b2a43e7e82d975c8a0a6d2f045153c869e111136a34d1889ab7b598e396a3600254826040516106e2929190610bfb565b60405180910390a160026000815480929190600101919050555050565b6000806001836040518082805190602001908083835b60208310151561073a5780518252602082019150602081019050602083039250610715565b6001836020036101000a0380198251168184511680821785525050505050509050019150509081526020016040518091039020549050600254811080156108005750828051906020012060008083815260200190815260200160002060405180828054600181600116156101000203166002900480156107f15780601f106107cf5761010080835404028352918201916107f1565b820191906000526020600020905b8154815290600101906020018083116107dd575b50509150506040518091039020145b915050919050565b50805460018160011615610100020316600290046000825580601f1061082e575061084d565b601f01602090049060005260206000209081019061084c91906108d0565b5b50565b828054600181600116156101000203166002900490600052602060002090601f016020900481019282601f1061089157805160ff19168380011785556108bf565b828001600101855582156108bf579182015b828111156108be5782518255916020019190600101906108a3565b5b5090506108cc91906108d0565b5090565b6108f291905b808211156108ee5760008160009055506001016108d6565b5090565b90565b600082601f830112151561090857600080fd5b813561091b61091682610c58565b610c2b565b9150808252602083016020830185838301111561093757600080fd5b610942838284610cd3565b50505092915050565b60006109578235610cc9565b905092915050565b60006020828403121561097157600080fd5b600082013567ffffffffffffffff81111561098b57600080fd5b610997848285016108f5565b91505092915050565b6000602082840312156109b257600080fd5b60006109c08482850161094b565b91505092915050565b60006109d482610c91565b808452602084019350836020820285016109ed85610c84565b60005b84811015610a26578383038852610a08838351610a6d565b9250610a1382610cb2565b91506020880197506001810190506109f0565b508196508694505050505092915050565b6000610a4282610ca7565b808452610a56816020860160208601610ce2565b610a5f81610d15565b602085010191505092915050565b6000610a7882610c9c565b808452610a8c816020860160208601610ce2565b610a9581610d15565b602085010191505092915050565b6000601882527f43616e64696461746520616c72656164792065786973747300000000000000006020830152604082019050919050565b6000601882527f43616e64696461746520646f6573206e6f7420657869737400000000000000006020830152604082019050919050565b6000601e82527f43616e646964617465206e616d652063616e6e6f7420626520656d70747900006020830152604082019050919050565b610b5181610cbf565b82525050565b60006020820190508181036000830152610b7181846109c9565b905092915050565b60006020820190508181036000830152610b938184610a6d565b905092915050565b60006020820190508181036000830152610bb481610aa3565b9050919050565b60006020820190508181036000830152610bd481610ada565b9050919050565b60006020820190508181036000830152610bf481610b11565b9050919050565b6000604082019050610c106000830185610b48565b8181036020830152610c228184610a37565b90509392505050565b6000604051905081810181811067ffffffffffffffff82111715610c4e57600080fd5b8060405250919050565b600067ffffffffffffffff821115610c6f57600080fd5b601f19601f8301169050602081019050919050565b6000602082019050919050565b600081519050919050565b600081519050919050565b600081519050919050565b6000602082019050919050565b6000819050919050565b6000819050919050565b82818337600083830152505050565b60005b83811015610d00578082015181840152602081019050610ce5565b83811115610d0f576000848401525b50505050565b6000601f19601f830116905091905056fea265627a7a72305820e73a71679513a8489c80e08f1060348207b2c36cad96ef85b982d90495f747446c6578706572696d656e74616cf50037",
  "source": "// SPDX-License-Identifier: MIT\r\npragma solidity >=0.4.22 <0.9.0;\r\npragma experimental ABIEncoderV2;\r\n\r\ncontract VotingSystem {\r\n    mapping(uint256 => string) public candidates;\r\n    mapping(string => uint256) private candidateIndices;\r\n    uint256 top = 0;\r\n\r\n    event CandidateAdded(uint256 index, string name);\r\n    event CandidateRemoved(uint256 index, string name);\r\n\r\n    function addCandidate(string memory name) public {\r\n        require(bytes(name).length > 0, \"Candidate name cannot be empty\");\r\n        require(!candidateExists(name), \"Candidate already exists\");\r\n        candidates[top] = name;\r\n        candidateIndices[name] = top;\r\n        emit CandidateAdded(top, name);\r\n        top++;\r\n    }\r\n    \r\n    function removeCandidate(string memory name) public {\r\n        require(bytes(name).length > 0, \"Candidate name cannot be empty\");\r\n        require(candidateExists(name), \"Candidate does not exist\");\r\n\r\n        uint256 index = candidateIndices[name];\r\n        emit CandidateRemoved(index, name);\r\n        \r\n        delete candidates[index];\r\n        delete candidateIndices[name];\r\n    }\r\n\r\n    function candidateExists(string memory name) internal view returns (bool) {\r\n        uint256 index = candidateIndices[name];\r\n        return (index < top && keccak256(bytes(candidates[index])) == keccak256(bytes(name)));\r\n    }\r\n\r\n    function getAllCandidates() public view returns (string[] memory) {\r\n        string[] memory tempNames = new string[](top);\r\n        uint256 count = 0;\r\n\r\n        for (uint256 i = 0; i < top; i++) {\r\n            if (bytes(candidates[i]).length > 0) {\r\n                tempNames[count] = candidates[i];\r\n                count++;\r\n            }\r\n        }\r\n\r\n        string[] memory validNames = new string[](count);\r\n        for (uint256 j = 0; j < count; j++) {\r\n            validNames[j] = tempNames[j];\r\n        }\r\n\r\n        return validNames;\r\n    }\r\n}",
  "sourcePath": "C:\\Users\\mtala\\Desktop\\CS Projects\\MERN Stack\\Voting System\\Truffle\\contracts\\VotingSystem.sol",
  "compiler": {
    "name": "solc",
    "version": "0.5.1+commit.c8a2cb62.Emscripten.clang"
  },
  "schemaVersion": "3.4.16",
  "updatedAt": "2024-06-11T17:02:59.039Z",
  "networkType": "ethereum",
  "devdoc": {
    "methods": {}
  },
  "userdoc": {
    "methods": {}
  }
}